{
  "_format": "hh-sol-artifact-1",
  "contractName": "Set",
  "sourceName": "contracts/Set.sol",
  "abi": [
    {
      "anonymous": false,
      "inputs": [
        {
          "indexed": false,
          "internalType": "address",
          "name": "_address",
          "type": "address"
        }
      ],
      "name": "AddressAdded",
      "type": "event"
    },
    {
      "anonymous": false,
      "inputs": [
        {
          "indexed": false,
          "internalType": "address",
          "name": "_address",
          "type": "address"
        }
      ],
      "name": "AddressRemoved",
      "type": "event"
    },
    {
      "inputs": [
        {
          "internalType": "address",
          "name": "_address",
          "type": "address"
        }
      ],
      "name": "addAddress",
      "outputs": [],
      "stateMutability": "nonpayable",
      "type": "function"
    },
    {
      "inputs": [
        {
          "internalType": "address",
          "name": "_address",
          "type": "address"
        }
      ],
      "name": "indexOfItem",
      "outputs": [
        {
          "internalType": "uint256",
          "name": "",
          "type": "uint256"
        }
      ],
      "stateMutability": "view",
      "type": "function"
    },
    {
      "inputs": [
        {
          "internalType": "address",
          "name": "_address",
          "type": "address"
        }
      ],
      "name": "isItemExist",
      "outputs": [
        {
          "internalType": "bool",
          "name": "",
          "type": "bool"
        }
      ],
      "stateMutability": "view",
      "type": "function"
    },
    {
      "inputs": [],
      "name": "numberOfItems",
      "outputs": [
        {
          "internalType": "uint256",
          "name": "",
          "type": "uint256"
        }
      ],
      "stateMutability": "view",
      "type": "function"
    },
    {
      "inputs": [
        {
          "internalType": "address",
          "name": "_address",
          "type": "address"
        }
      ],
      "name": "removeAddress",
      "outputs": [],
      "stateMutability": "nonpayable",
      "type": "function"
    },
    {
      "inputs": [
        {
          "internalType": "uint256",
          "name": "index",
          "type": "uint256"
        }
      ],
      "name": "valueOfItemKey",
      "outputs": [
        {
          "internalType": "address",
          "name": "",
          "type": "address"
        }
      ],
      "stateMutability": "view",
      "type": "function"
    }
  ],
  "bytecode": "0x608060405234801561001057600080fd5b50610b07806100206000396000f3fe608060405234801561001057600080fd5b50600436106100625760003560e01c806338eada1c146100675780634ba79dfe1461008357806379d838d41461009f578063842296d4146100cf5780639da3abe0146100ed578063c2104c321461011d575b600080fd5b610081600480360381019061007c9190610712565b61014d565b005b61009d60048036038101906100989190610712565b6102b5565b005b6100b960048036038101906100b49190610712565b6105de565b6040516100c69190610898565b60405180910390f35b6100d761064a565b6040516100e49190610898565b60405180910390f35b6101076004803603810190610102919061073f565b610656565b6040516101149190610802565b60405180910390f35b61013760048036038101906101329190610712565b61069d565b604051610144919061081d565b60405180910390f35b6000600160008373ffffffffffffffffffffffffffffffffffffffff1673ffffffffffffffffffffffffffffffffffffffff16815260200190815260200160002054146101cf576040517f08c379a00000000000000000000000000000000000000000000000000000000081526004016101c690610838565b60405180910390fd5b6000819080600181540180825580915050600190039060005260206000200160009091909190916101000a81548173ffffffffffffffffffffffffffffffffffffffff021916908373ffffffffffffffffffffffffffffffffffffffff160217905550600080549050600160008373ffffffffffffffffffffffffffffffffffffffff1673ffffffffffffffffffffffffffffffffffffffff168152602001908152602001600020819055507fa226db3f664042183ee0281230bba26cbf7b5057e50aee7f25a175ff45ce4d7f816040516102aa9190610802565b60405180910390a150565b60008080549050116102fc576040517f08c379a00000000000000000000000000000000000000000000000000000000081526004016102f390610878565b60405180910390fd5b6000600160008373ffffffffffffffffffffffffffffffffffffffff1673ffffffffffffffffffffffffffffffffffffffff168152602001908152602001600020541161037e576040517f08c379a000000000000000000000000000000000000000000000000000000000815260040161037590610858565b60405180910390fd5b600060018060008473ffffffffffffffffffffffffffffffffffffffff1673ffffffffffffffffffffffffffffffffffffffff168152602001908152602001600020546103cb919061091a565b90506000600160008473ffffffffffffffffffffffffffffffffffffffff1673ffffffffffffffffffffffffffffffffffffffff1681526020019081526020016000208190555060018161041f91906108c4565b60016000806001600080549050610436919061091a565b81548110610447576104466109f4565b5b9060005260206000200160009054906101000a900473ffffffffffffffffffffffffffffffffffffffff1673ffffffffffffffffffffffffffffffffffffffff1673ffffffffffffffffffffffffffffffffffffffff16815260200190815260200160002081905550600060016000805490506104c4919061091a565b815481106104d5576104d46109f4565b5b9060005260206000200160009054906101000a900473ffffffffffffffffffffffffffffffffffffffff1660008281548110610514576105136109f4565b5b9060005260206000200160006101000a81548173ffffffffffffffffffffffffffffffffffffffff021916908373ffffffffffffffffffffffffffffffffffffffff160217905550600080548061056e5761056d6109c5565b5b6001900381819060005260206000200160006101000a81549073ffffffffffffffffffffffffffffffffffffffff021916905590557f24a12366c02e13fe4a9e03d86a8952e85bb74a456c16e4a18b6d8295700b74bb826040516105d29190610802565b60405180910390a15050565b60006105e98261069d565b156106405760018060008473ffffffffffffffffffffffffffffffffffffffff1673ffffffffffffffffffffffffffffffffffffffff16815260200190815260200160002054610639919061091a565b9050610645565b600090505b919050565b60008080549050905090565b600080828154811061066b5761066a6109f4565b5b9060005260206000200160009054906101000a900473ffffffffffffffffffffffffffffffffffffffff169050919050565b600080600160008473ffffffffffffffffffffffffffffffffffffffff1673ffffffffffffffffffffffffffffffffffffffff16815260200190815260200160002054119050919050565b6000813590506106f781610aa3565b92915050565b60008135905061070c81610aba565b92915050565b60006020828403121561072857610727610a23565b5b6000610736848285016106e8565b91505092915050565b60006020828403121561075557610754610a23565b5b6000610763848285016106fd565b91505092915050565b6107758161094e565b82525050565b61078481610960565b82525050565b60006107976012836108b3565b91506107a282610a28565b602082019050919050565b60006107ba6012836108b3565b91506107c582610a51565b602082019050919050565b60006107dd6019836108b3565b91506107e882610a7a565b602082019050919050565b6107fc8161098c565b82525050565b6000602082019050610817600083018461076c565b92915050565b6000602082019050610832600083018461077b565b92915050565b600060208201905081810360008301526108518161078a565b9050919050565b60006020820190508181036000830152610871816107ad565b9050919050565b60006020820190508181036000830152610891816107d0565b9050919050565b60006020820190506108ad60008301846107f3565b92915050565b600082825260208201905092915050565b60006108cf8261098c565b91506108da8361098c565b9250827fffffffffffffffffffffffffffffffffffffffffffffffffffffffffffffffff0382111561090f5761090e610996565b5b828201905092915050565b60006109258261098c565b91506109308361098c565b92508282101561094357610942610996565b5b828203905092915050565b60006109598261096c565b9050919050565b60008115159050919050565b600073ffffffffffffffffffffffffffffffffffffffff82169050919050565b6000819050919050565b7f4e487b7100000000000000000000000000000000000000000000000000000000600052601160045260246000fd5b7f4e487b7100000000000000000000000000000000000000000000000000000000600052603160045260246000fd5b7f4e487b7100000000000000000000000000000000000000000000000000000000600052603260045260246000fd5b600080fd5b7f4974656d20616c72656164792065786973740000000000000000000000000000600082015250565b7f4974656d20646f65736e27742065786973740000000000000000000000000000600082015250565b7f5468657265206973206e6f206974656d20696e20617272617900000000000000600082015250565b610aac8161094e565b8114610ab757600080fd5b50565b610ac38161098c565b8114610ace57600080fd5b5056fea264697066735822122011499cc6ed56990bdc19df4675f2231c3929950749c86df7618c6093da2e5ce364736f6c63430008070033",
  "linkReferences": {},
  "deployedLinkReferences": {}
}